{
  "address": "0x623e9AA876De470E78b085723a716aA900610f11",
  "abi": [
    {
      "inputs": [
        {
          "internalType": "string",
          "name": "_greet",
          "type": "string"
        }
      ],
      "stateMutability": "nonpayable",
      "type": "constructor"
    },
    {
      "anonymous": false,
      "inputs": [
        {
          "indexed": false,
          "internalType": "string",
          "name": "greeting",
          "type": "string"
        },
        {
          "indexed": false,
          "internalType": "address",
          "name": "sender",
          "type": "address"
        }
      ],
      "name": "newGreeting",
      "type": "event"
    },
    {
      "inputs": [],
      "name": "greet",
      "outputs": [
        {
          "internalType": "string",
          "name": "",
          "type": "string"
        }
      ],
      "stateMutability": "view",
      "type": "function"
    },
    {
      "inputs": [],
      "name": "greetAgain",
      "outputs": [
        {
          "internalType": "string",
          "name": "",
          "type": "string"
        }
      ],
      "stateMutability": "view",
      "type": "function"
    },
    {
      "inputs": [
        {
          "internalType": "string",
          "name": "_greeting",
          "type": "string"
        }
      ],
      "name": "setGreeting",
      "outputs": [],
      "stateMutability": "nonpayable",
      "type": "function"
    }
  ],
  "transactionHash": "0x2aa2862fd545e8fffca28b03d578376388be7de003e4a58bfe878057b3d2bfef",
  "args": [
    "hello world"
  ],
  "numDeployments": 8,
  "solcInputHash": "adacf80d2d256844c6e9441320e902d7",
  "bytecode": "0x60806040523480156200001157600080fd5b5060405162000d9038038062000d908339818101604052810190620000379190620003a3565b6200006760405180606001604052806022815260200162000d6e60229139826200008760201b6200026d1760201c565b80600090805190602001906200007f92919062000156565b5050620004f0565b620001298282604051602401620000a092919062000451565b6040516020818303038152906040527f4b5c4277000000000000000000000000000000000000000000000000000000007bffffffffffffffffffffffffffffffffffffffffffffffffffffffff19166020820180517bffffffffffffffffffffffffffffffffffffffffffffffffffffffff83818316178352505050506200012d60201b60201c565b5050565b60008151905060006a636f6e736f6c652e6c6f679050602083016000808483855afa5050505050565b8280546200016490620004bb565b90600052602060002090601f016020900481019282620001885760008555620001d4565b82601f10620001a357805160ff1916838001178555620001d4565b82800160010185558215620001d4579182015b82811115620001d3578251825591602001919060010190620001b6565b5b509050620001e39190620001e7565b5090565b5b8082111562000202576000816000905550600101620001e8565b5090565b6000604051905090565b600080fd5b600080fd5b600080fd5b600080fd5b6000601f19601f8301169050919050565b7f4e487b7100000000000000000000000000000000000000000000000000000000600052604160045260246000fd5b6200026f8262000224565b810181811067ffffffffffffffff8211171562000291576200029062000235565b5b80604052505050565b6000620002a662000206565b9050620002b4828262000264565b919050565b600067ffffffffffffffff821115620002d757620002d662000235565b5b620002e28262000224565b9050602081019050919050565b60005b838110156200030f578082015181840152602081019050620002f2565b838111156200031f576000848401525b50505050565b60006200033c6200033684620002b9565b6200029a565b9050828152602081018484840111156200035b576200035a6200021f565b5b62000368848285620002ef565b509392505050565b600082601f8301126200038857620003876200021a565b5b81516200039a84826020860162000325565b91505092915050565b600060208284031215620003bc57620003bb62000210565b5b600082015167ffffffffffffffff811115620003dd57620003dc62000215565b5b620003eb8482850162000370565b91505092915050565b600081519050919050565b600082825260208201905092915050565b60006200041d82620003f4565b620004298185620003ff565b93506200043b818560208601620002ef565b620004468162000224565b840191505092915050565b600060408201905081810360008301526200046d818562000410565b9050818103602083015262000483818462000410565b90509392505050565b7f4e487b7100000000000000000000000000000000000000000000000000000000600052602260045260246000fd5b60006002820490506001821680620004d457607f821691505b602082108103620004ea57620004e96200048c565b5b50919050565b61086e80620005006000396000f3fe608060405234801561001057600080fd5b50600436106100415760003560e01c80630894b0fb14610046578063a413686214610064578063cfae321714610080575b600080fd5b61004e61009e565b60405161005b919061050d565b60405180910390f35b61007e60048036038101906100799190610678565b6100db565b005b6100886101db565b604051610095919061050d565b60405180910390f35b60606040518060400160405280600981526020017f4772656574696e67730000000000000000000000000000000000000000000000815250905090565b6101886040518060600160405280602381526020016108166023913960008054610104906106f0565b80601f0160208091040260200160405190810160405280929190818152602001828054610130906106f0565b801561017d5780601f106101525761010080835404028352916020019161017d565b820191906000526020600020905b81548152906001019060200180831161016057829003601f168201915b505050505083610309565b806000908051906020019061019e9291906103d1565b507f0b015bbae892f882530638e35656b992f6d80ba21f981e783510a13dbe53d43d81336040516101d0929190610762565b60405180910390a150565b6060600080546101ea906106f0565b80601f0160208091040260200160405190810160405280929190818152602001828054610216906106f0565b80156102635780601f1061023857610100808354040283529160200191610263565b820191906000526020600020905b81548152906001019060200180831161024657829003601f168201915b5050505050905090565b6103058282604051602401610283929190610792565b6040516020818303038152906040527f4b5c4277000000000000000000000000000000000000000000000000000000007bffffffffffffffffffffffffffffffffffffffffffffffffffffffff19166020820180517bffffffffffffffffffffffffffffffffffffffffffffffffffffffff83818316178352505050506103a8565b5050565b6103a3838383604051602401610321939291906107c9565b6040516020818303038152906040527f2ced7cef000000000000000000000000000000000000000000000000000000007bffffffffffffffffffffffffffffffffffffffffffffffffffffffff19166020820180517bffffffffffffffffffffffffffffffffffffffffffffffffffffffff83818316178352505050506103a8565b505050565b60008151905060006a636f6e736f6c652e6c6f679050602083016000808483855afa5050505050565b8280546103dd906106f0565b90600052602060002090601f0160209004810192826103ff5760008555610446565b82601f1061041857805160ff1916838001178555610446565b82800160010185558215610446579182015b8281111561044557825182559160200191906001019061042a565b5b5090506104539190610457565b5090565b5b80821115610470576000816000905550600101610458565b5090565b600081519050919050565b600082825260208201905092915050565b60005b838110156104ae578082015181840152602081019050610493565b838111156104bd576000848401525b50505050565b6000601f19601f8301169050919050565b60006104df82610474565b6104e9818561047f565b93506104f9818560208601610490565b610502816104c3565b840191505092915050565b6000602082019050818103600083015261052781846104d4565b905092915050565b6000604051905090565b600080fd5b600080fd5b600080fd5b600080fd5b7f4e487b7100000000000000000000000000000000000000000000000000000000600052604160045260246000fd5b610585826104c3565b810181811067ffffffffffffffff821117156105a4576105a361054d565b5b80604052505050565b60006105b761052f565b90506105c3828261057c565b919050565b600067ffffffffffffffff8211156105e3576105e261054d565b5b6105ec826104c3565b9050602081019050919050565b82818337600083830152505050565b600061061b610616846105c8565b6105ad565b90508281526020810184848401111561063757610636610548565b5b6106428482856105f9565b509392505050565b600082601f83011261065f5761065e610543565b5b813561066f848260208601610608565b91505092915050565b60006020828403121561068e5761068d610539565b5b600082013567ffffffffffffffff8111156106ac576106ab61053e565b5b6106b88482850161064a565b91505092915050565b7f4e487b7100000000000000000000000000000000000000000000000000000000600052602260045260246000fd5b6000600282049050600182168061070857607f821691505b60208210810361071b5761071a6106c1565b5b50919050565b600073ffffffffffffffffffffffffffffffffffffffff82169050919050565b600061074c82610721565b9050919050565b61075c81610741565b82525050565b6000604082019050818103600083015261077c81856104d4565b905061078b6020830184610753565b9392505050565b600060408201905081810360008301526107ac81856104d4565b905081810360208301526107c081846104d4565b90509392505050565b600060608201905081810360008301526107e381866104d4565b905081810360208301526107f781856104d4565b9050818103604083015261080b81846104d4565b905094935050505056fe4368616e67696e67206772656574696e672066726f6d202725732720746f2027257327a2646970667358221220821bac7e5c9c15953b5bab1dc027405ddf2be95cc3c309090873217c87841bf364736f6c634300080d00334465706c6f79696e67206120477265657465722077697468206772656574696e673a",
  "devdoc": {
    "kind": "dev",
    "methods": {},
    "version": 1
  },
  "userdoc": {
    "kind": "user",
    "methods": {},
    "version": 1
  },
  "storageLayout": {
    "storage": [
      {
        "astId": 10,
        "contract": "contracts/Greeter.sol:Greeter",
        "label": "greeting",
        "offset": 0,
        "slot": "0",
        "type": "t_string_storage"
      }
    ],
    "types": {
      "t_string_storage": {
        "encoding": "bytes",
        "label": "string",
        "numberOfBytes": "32"
      }
    }
  }
}