{
  "address": "0xD7Da9EE5490223F5c87Ca688CA7D82660bcb85D0",
  "abi": [
    {
      "inputs": [
        {
          "internalType": "string",
          "name": "_greet",
          "type": "string"
        }
      ],
      "stateMutability": "nonpayable",
      "type": "constructor"
    },
    {
      "anonymous": false,
      "inputs": [
        {
          "indexed": false,
          "internalType": "string",
          "name": "greeting",
          "type": "string"
        },
        {
          "indexed": false,
          "internalType": "address",
          "name": "sender",
          "type": "address"
        }
      ],
      "name": "newGreeting",
      "type": "event"
    },
    {
      "inputs": [],
      "name": "greet",
      "outputs": [
        {
          "internalType": "string",
          "name": "",
          "type": "string"
        }
      ],
      "stateMutability": "view",
      "type": "function"
    },
    {
      "inputs": [],
      "name": "greetAgain",
      "outputs": [
        {
          "internalType": "string",
          "name": "",
          "type": "string"
        }
      ],
      "stateMutability": "view",
      "type": "function"
    },
    {
      "inputs": [
        {
          "internalType": "string",
          "name": "_greeting",
          "type": "string"
        }
      ],
      "name": "setGreeting",
      "outputs": [],
      "stateMutability": "nonpayable",
      "type": "function"
    }
  ],
  "transactionHash": "0x0dc288c1da2c154b746150000c742af809d6059780f866186ab688f8e2d05f7f",
  "args": [
    "hello world"
  ],
  "numDeployments": 5,
  "solcInputHash": "9269bdf462d444671928d875e2411b43",
  "bytecode": "0x60806040523480156200001157600080fd5b5060405162000d4238038062000d42833981810160405281019062000037919062000278565b6200006760405180606001604052806022815260200162000d2060229139826200008760201b6200026d1760201c565b80600090805190602001906200007f92919062000156565b5050620004c5565b620001298282604051602401620000a0929190620002fe565b6040516020818303038152906040527f4b5c4277000000000000000000000000000000000000000000000000000000007bffffffffffffffffffffffffffffffffffffffffffffffffffffffff19166020820180517bffffffffffffffffffffffffffffffffffffffffffffffffffffffff83818316178352505050506200012d60201b60201c565b5050565b60008151905060006a636f6e736f6c652e6c6f679050602083016000808483855afa5050505050565b8280546200016490620003ea565b90600052602060002090601f016020900481019282620001885760008555620001d4565b82601f10620001a357805160ff1916838001178555620001d4565b82800160010185558215620001d4579182015b82811115620001d3578251825591602001919060010190620001b6565b5b509050620001e39190620001e7565b5090565b5b8082111562000202576000816000905550600101620001e8565b5090565b60006200021d620002178462000362565b62000339565b9050828152602081018484840111156200023657600080fd5b62000243848285620003b4565b509392505050565b600082601f8301126200025d57600080fd5b81516200026f84826020860162000206565b91505092915050565b6000602082840312156200028b57600080fd5b600082015167ffffffffffffffff811115620002a657600080fd5b620002b4848285016200024b565b91505092915050565b6000620002ca8262000398565b620002d68185620003a3565b9350620002e8818560208601620003b4565b620002f381620004b4565b840191505092915050565b600060408201905081810360008301526200031a8185620002bd565b90508181036020830152620003308184620002bd565b90509392505050565b60006200034562000358565b905062000353828262000420565b919050565b6000604051905090565b600067ffffffffffffffff82111562000380576200037f62000485565b5b6200038b82620004b4565b9050602081019050919050565b600081519050919050565b600082825260208201905092915050565b60005b83811015620003d4578082015181840152602081019050620003b7565b83811115620003e4576000848401525b50505050565b600060028204905060018216806200040357607f821691505b602082108114156200041a576200041962000456565b5b50919050565b6200042b82620004b4565b810181811067ffffffffffffffff821117156200044d576200044c62000485565b5b80604052505050565b7f4e487b7100000000000000000000000000000000000000000000000000000000600052602260045260246000fd5b7f4e487b7100000000000000000000000000000000000000000000000000000000600052604160045260246000fd5b6000601f19601f8301169050919050565b61084b80620004d56000396000f3fe608060405234801561001057600080fd5b50600436106100415760003560e01c80630894b0fb14610046578063a413686214610064578063cfae321714610080575b600080fd5b61004e61009e565b60405161005b9190610565565b60405180910390f35b61007e600480360381019061007991906104dc565b6100db565b005b6100886101db565b6040516100959190610565565b60405180910390f35b60606040518060400160405280600981526020017f4772656574696e67730000000000000000000000000000000000000000000000815250905090565b6101886040518060600160405280602381526020016107f3602391396000805461010490610720565b80601f016020809104026020016040519081016040528092919081815260200182805461013090610720565b801561017d5780601f106101525761010080835404028352916020019161017d565b820191906000526020600020905b81548152906001019060200180831161016057829003601f168201915b505050505083610309565b806000908051906020019061019e9291906103d1565b507f0b015bbae892f882530638e35656b992f6d80ba21f981e783510a13dbe53d43d81336040516101d0929190610587565b60405180910390a150565b6060600080546101ea90610720565b80601f016020809104026020016040519081016040528092919081815260200182805461021690610720565b80156102635780601f1061023857610100808354040283529160200191610263565b820191906000526020600020905b81548152906001019060200180831161024657829003601f168201915b5050505050905090565b61030582826040516024016102839291906105b7565b6040516020818303038152906040527f4b5c4277000000000000000000000000000000000000000000000000000000007bffffffffffffffffffffffffffffffffffffffffffffffffffffffff19166020820180517bffffffffffffffffffffffffffffffffffffffffffffffffffffffff83818316178352505050506103a8565b5050565b6103a3838383604051602401610321939291906105ee565b6040516020818303038152906040527f2ced7cef000000000000000000000000000000000000000000000000000000007bffffffffffffffffffffffffffffffffffffffffffffffffffffffff19166020820180517bffffffffffffffffffffffffffffffffffffffffffffffffffffffff83818316178352505050506103a8565b505050565b60008151905060006a636f6e736f6c652e6c6f679050602083016000808483855afa5050505050565b8280546103dd90610720565b90600052602060002090601f0160209004810192826103ff5760008555610446565b82601f1061041857805160ff1916838001178555610446565b82800160010185558215610446579182015b8281111561044557825182559160200191906001019061042a565b5b5090506104539190610457565b5090565b5b80821115610470576000816000905550600101610458565b5090565b60006104876104828461065f565b61063a565b90508281526020810184848401111561049f57600080fd5b6104aa8482856106de565b509392505050565b600082601f8301126104c357600080fd5b81356104d3848260208601610474565b91505092915050565b6000602082840312156104ee57600080fd5b600082013567ffffffffffffffff81111561050857600080fd5b610514848285016104b2565b91505092915050565b610526816106ac565b82525050565b600061053782610690565b610541818561069b565b93506105518185602086016106ed565b61055a816107e1565b840191505092915050565b6000602082019050818103600083015261057f818461052c565b905092915050565b600060408201905081810360008301526105a1818561052c565b90506105b0602083018461051d565b9392505050565b600060408201905081810360008301526105d1818561052c565b905081810360208301526105e5818461052c565b90509392505050565b60006060820190508181036000830152610608818661052c565b9050818103602083015261061c818561052c565b90508181036040830152610630818461052c565b9050949350505050565b6000610644610655565b90506106508282610752565b919050565b6000604051905090565b600067ffffffffffffffff82111561067a576106796107b2565b5b610683826107e1565b9050602081019050919050565b600081519050919050565b600082825260208201905092915050565b60006106b7826106be565b9050919050565b600073ffffffffffffffffffffffffffffffffffffffff82169050919050565b82818337600083830152505050565b60005b8381101561070b5780820151818401526020810190506106f0565b8381111561071a576000848401525b50505050565b6000600282049050600182168061073857607f821691505b6020821081141561074c5761074b610783565b5b50919050565b61075b826107e1565b810181811067ffffffffffffffff8211171561077a576107796107b2565b5b80604052505050565b7f4e487b7100000000000000000000000000000000000000000000000000000000600052602260045260246000fd5b7f4e487b7100000000000000000000000000000000000000000000000000000000600052604160045260246000fd5b6000601f19601f830116905091905056fe4368616e67696e67206772656574696e672066726f6d202725732720746f2027257327a264697066735822122010159b41ee2f8e0165d503400f9e141f8fe11b33449aaddf16e0d6d6f5d6b7a464736f6c634300080400334465706c6f79696e67206120477265657465722077697468206772656574696e673a",
  "devdoc": {
    "kind": "dev",
    "methods": {},
    "version": 1
  },
  "userdoc": {
    "kind": "user",
    "methods": {},
    "version": 1
  },
  "storageLayout": {
    "storage": [
      {
        "astId": 10,
        "contract": "contracts/Greeter.sol:Greeter",
        "label": "greeting",
        "offset": 0,
        "slot": "0",
        "type": "t_string_storage"
      }
    ],
    "types": {
      "t_string_storage": {
        "encoding": "bytes",
        "label": "string",
        "numberOfBytes": "32"
      }
    }
  }
}