{
  "address": "0x9EEb3E69dc9d2036Db7ABc2b3305E6dE89125491",
  "abi": [
    {
      "inputs": [
        {
          "internalType": "string",
          "name": "_name",
          "type": "string"
        },
        {
          "internalType": "string",
          "name": "_symbol",
          "type": "string"
        }
      ],
      "stateMutability": "nonpayable",
      "type": "constructor"
    },
    {
      "anonymous": false,
      "inputs": [
        {
          "indexed": true,
          "internalType": "address",
          "name": "owner",
          "type": "address"
        },
        {
          "indexed": true,
          "internalType": "address",
          "name": "spender",
          "type": "address"
        },
        {
          "indexed": false,
          "internalType": "uint256",
          "name": "value",
          "type": "uint256"
        }
      ],
      "name": "Approval",
      "type": "event"
    },
    {
      "anonymous": false,
      "inputs": [
        {
          "indexed": false,
          "internalType": "bool",
          "name": "s",
          "type": "bool"
        },
        {
          "indexed": false,
          "internalType": "bytes",
          "name": "r",
          "type": "bytes"
        }
      ],
      "name": "Debug",
      "type": "event"
    },
    {
      "anonymous": false,
      "inputs": [
        {
          "indexed": false,
          "internalType": "uint256",
          "name": "u",
          "type": "uint256"
        }
      ],
      "name": "DebugUint",
      "type": "event"
    },
    {
      "anonymous": false,
      "inputs": [
        {
          "indexed": true,
          "internalType": "address",
          "name": "from",
          "type": "address"
        },
        {
          "indexed": true,
          "internalType": "address",
          "name": "to",
          "type": "address"
        },
        {
          "indexed": false,
          "internalType": "uint256",
          "name": "value",
          "type": "uint256"
        }
      ],
      "name": "Transfer",
      "type": "event"
    },
    {
      "inputs": [
        {
          "internalType": "address",
          "name": "owner",
          "type": "address"
        },
        {
          "internalType": "address",
          "name": "spender",
          "type": "address"
        }
      ],
      "name": "allowance",
      "outputs": [
        {
          "internalType": "uint256",
          "name": "",
          "type": "uint256"
        }
      ],
      "stateMutability": "view",
      "type": "function"
    },
    {
      "inputs": [
        {
          "internalType": "address",
          "name": "spender",
          "type": "address"
        },
        {
          "internalType": "uint256",
          "name": "amount",
          "type": "uint256"
        }
      ],
      "name": "approve",
      "outputs": [
        {
          "internalType": "bool",
          "name": "",
          "type": "bool"
        }
      ],
      "stateMutability": "nonpayable",
      "type": "function"
    },
    {
      "inputs": [
        {
          "internalType": "address",
          "name": "account",
          "type": "address"
        }
      ],
      "name": "balanceOf",
      "outputs": [
        {
          "internalType": "uint256",
          "name": "",
          "type": "uint256"
        }
      ],
      "stateMutability": "view",
      "type": "function"
    },
    {
      "inputs": [
        {
          "internalType": "uint256",
          "name": "amount",
          "type": "uint256"
        }
      ],
      "name": "burn",
      "outputs": [],
      "stateMutability": "nonpayable",
      "type": "function"
    },
    {
      "inputs": [
        {
          "internalType": "address",
          "name": "account",
          "type": "address"
        },
        {
          "internalType": "uint256",
          "name": "amount",
          "type": "uint256"
        }
      ],
      "name": "burnFrom",
      "outputs": [],
      "stateMutability": "nonpayable",
      "type": "function"
    },
    {
      "inputs": [
        {
          "internalType": "uint256",
          "name": "tokenCount",
          "type": "uint256"
        }
      ],
      "name": "convertToPure",
      "outputs": [
        {
          "internalType": "bool",
          "name": "success",
          "type": "bool"
        }
      ],
      "stateMutability": "nonpayable",
      "type": "function"
    },
    {
      "inputs": [],
      "name": "decimals",
      "outputs": [
        {
          "internalType": "uint8",
          "name": "",
          "type": "uint8"
        }
      ],
      "stateMutability": "view",
      "type": "function"
    },
    {
      "inputs": [
        {
          "internalType": "address",
          "name": "spender",
          "type": "address"
        },
        {
          "internalType": "uint256",
          "name": "subtractedValue",
          "type": "uint256"
        }
      ],
      "name": "decreaseAllowance",
      "outputs": [
        {
          "internalType": "bool",
          "name": "",
          "type": "bool"
        }
      ],
      "stateMutability": "nonpayable",
      "type": "function"
    },
    {
      "inputs": [],
      "name": "genesisTime",
      "outputs": [
        {
          "internalType": "uint256",
          "name": "",
          "type": "uint256"
        }
      ],
      "stateMutability": "view",
      "type": "function"
    },
    {
      "inputs": [
        {
          "internalType": "address",
          "name": "spender",
          "type": "address"
        },
        {
          "internalType": "uint256",
          "name": "addedValue",
          "type": "uint256"
        }
      ],
      "name": "increaseAllowance",
      "outputs": [
        {
          "internalType": "bool",
          "name": "",
          "type": "bool"
        }
      ],
      "stateMutability": "nonpayable",
      "type": "function"
    },
    {
      "inputs": [
        {
          "internalType": "address",
          "name": "senderAddress",
          "type": "address"
        },
        {
          "internalType": "uint256",
          "name": "amountToConvert",
          "type": "uint256"
        }
      ],
      "name": "mintGovToken",
      "outputs": [],
      "stateMutability": "nonpayable",
      "type": "function"
    },
    {
      "inputs": [],
      "name": "name",
      "outputs": [
        {
          "internalType": "string",
          "name": "",
          "type": "string"
        }
      ],
      "stateMutability": "view",
      "type": "function"
    },
    {
      "inputs": [],
      "name": "symbol",
      "outputs": [
        {
          "internalType": "string",
          "name": "",
          "type": "string"
        }
      ],
      "stateMutability": "view",
      "type": "function"
    },
    {
      "inputs": [],
      "name": "totalSupply",
      "outputs": [
        {
          "internalType": "uint256",
          "name": "",
          "type": "uint256"
        }
      ],
      "stateMutability": "view",
      "type": "function"
    },
    {
      "inputs": [
        {
          "internalType": "address",
          "name": "to",
          "type": "address"
        },
        {
          "internalType": "uint256",
          "name": "amount",
          "type": "uint256"
        }
      ],
      "name": "transfer",
      "outputs": [
        {
          "internalType": "bool",
          "name": "",
          "type": "bool"
        }
      ],
      "stateMutability": "nonpayable",
      "type": "function"
    },
    {
      "inputs": [
        {
          "internalType": "address",
          "name": "from",
          "type": "address"
        },
        {
          "internalType": "address",
          "name": "to",
          "type": "address"
        },
        {
          "internalType": "uint256",
          "name": "amount",
          "type": "uint256"
        }
      ],
      "name": "transferFrom",
      "outputs": [
        {
          "internalType": "bool",
          "name": "",
          "type": "bool"
        }
      ],
      "stateMutability": "nonpayable",
      "type": "function"
    }
  ],
  "transactionHash": "0x57060ede8fafe44b8df219507a6d5b30cdd07deddd9b268052385cac8c4ddb41",
  "args": [
    "Pure Governance Token",
    "PGT"
  ],
  "numDeployments": 2,
  "solcInputHash": "9ec343113e43ffe70576bc4e6e516167",
  "bytecode": "0x60806040523480156200001157600080fd5b50604051620029ff380380620029ff8339818101604052810190620000379190620004fc565b6040518060400160405280601581526020017f5075726520476f7665726e616e636520546f6b656e00000000000000000000008152506040518060400160405280600381526020017f50475400000000000000000000000000000000000000000000000000000000008152508160039080519060200190620000bb929190620002af565b508060049080519060200190620000d4929190620002af565b505050426005819055506200011c33620000f36200012460201b60201c565b600a6200010191906200071b565b6127106200011091906200076c565b6200012d60201b60201c565b50506200093f565b60006012905090565b600073ffffffffffffffffffffffffffffffffffffffff168273ffffffffffffffffffffffffffffffffffffffff16036200019f576040517f08c379a000000000000000000000000000000000000000000000000000000000815260040162000196906200082e565b60405180910390fd5b620001b360008383620002a560201b60201c565b8060026000828254620001c7919062000850565b92505081905550806000808473ffffffffffffffffffffffffffffffffffffffff1673ffffffffffffffffffffffffffffffffffffffff16815260200190815260200160002060008282546200021e919062000850565b925050819055508173ffffffffffffffffffffffffffffffffffffffff16600073ffffffffffffffffffffffffffffffffffffffff167fddf252ad1be2c89b69c2b068fc378daa952ba7f163c4a11628f55a4df523b3ef83604051620002859190620008be565b60405180910390a3620002a160008383620002aa60201b60201c565b5050565b505050565b505050565b828054620002bd906200090a565b90600052602060002090601f016020900481019282620002e157600085556200032d565b82601f10620002fc57805160ff19168380011785556200032d565b828001600101855582156200032d579182015b828111156200032c5782518255916020019190600101906200030f565b5b5090506200033c919062000340565b5090565b5b808211156200035b57600081600090555060010162000341565b5090565b6000604051905090565b600080fd5b600080fd5b600080fd5b600080fd5b6000601f19601f8301169050919050565b7f4e487b7100000000000000000000000000000000000000000000000000000000600052604160045260246000fd5b620003c8826200037d565b810181811067ffffffffffffffff82111715620003ea57620003e96200038e565b5b80604052505050565b6000620003ff6200035f565b90506200040d8282620003bd565b919050565b600067ffffffffffffffff82111562000430576200042f6200038e565b5b6200043b826200037d565b9050602081019050919050565b60005b83811015620004685780820151818401526020810190506200044b565b8381111562000478576000848401525b50505050565b6000620004956200048f8462000412565b620003f3565b905082815260208101848484011115620004b457620004b362000378565b5b620004c184828562000448565b509392505050565b600082601f830112620004e157620004e062000373565b5b8151620004f38482602086016200047e565b91505092915050565b6000806040838503121562000516576200051562000369565b5b600083015167ffffffffffffffff8111156200053757620005366200036e565b5b6200054585828601620004c9565b925050602083015167ffffffffffffffff8111156200056957620005686200036e565b5b6200057785828601620004c9565b9150509250929050565b7f4e487b7100000000000000000000000000000000000000000000000000000000600052601160045260246000fd5b60008160011c9050919050565b6000808291508390505b60018511156200060f57808604811115620005e757620005e662000581565b5b6001851615620005f75780820291505b80810290506200060785620005b0565b9450620005c7565b94509492505050565b6000826200062a5760019050620006fd565b816200063a5760009050620006fd565b81600181146200065357600281146200065e5762000694565b6001915050620006fd565b60ff84111562000673576200067262000581565b5b8360020a9150848211156200068d576200068c62000581565b5b50620006fd565b5060208310610133831016604e8410600b8410161715620006ce5782820a905083811115620006c857620006c762000581565b5b620006fd565b620006dd8484846001620005bd565b92509050818404811115620006f757620006f662000581565b5b81810290505b9392505050565b6000819050919050565b600060ff82169050919050565b6000620007288262000704565b915062000735836200070e565b9250620007647fffffffffffffffffffffffffffffffffffffffffffffffffffffffffffffffff848462000618565b905092915050565b6000620007798262000704565b9150620007868362000704565b9250817fffffffffffffffffffffffffffffffffffffffffffffffffffffffffffffffff0483118215151615620007c257620007c162000581565b5b828202905092915050565b600082825260208201905092915050565b7f45524332303a206d696e7420746f20746865207a65726f206164647265737300600082015250565b600062000816601f83620007cd565b91506200082382620007de565b602082019050919050565b60006020820190508181036000830152620008498162000807565b9050919050565b60006200085d8262000704565b91506200086a8362000704565b9250827fffffffffffffffffffffffffffffffffffffffffffffffffffffffffffffffff03821115620008a257620008a162000581565b5b828201905092915050565b620008b88162000704565b82525050565b6000602082019050620008d56000830184620008ad565b92915050565b7f4e487b7100000000000000000000000000000000000000000000000000000000600052602260045260246000fd5b600060028204905060018216806200092357607f821691505b602082108103620009395762000938620008db565b5b50919050565b6120b0806200094f6000396000f3fe608060405234801561001057600080fd5b50600436106101005760003560e01c806342c6498a11610097578063a457c2d711610066578063a457c2d7146102c3578063a9059cbb146102f3578063d688c1b914610323578063dd62ed3e1461033f57610100565b806342c6498a1461023b57806370a082311461025957806379cc67901461028957806395d89b41146102a557610100565b806323b872dd116100d357806323b872dd146101a1578063313ce567146101d157806339509351146101ef57806342966c681461021f57610100565b806306fdde0314610105578063095ea7b31461012357806313ab25e81461015357806318160ddd14610183575b600080fd5b61010d61036f565b60405161011a91906113d9565b60405180910390f35b61013d60048036038101906101389190611494565b610401565b60405161014a91906114ef565b60405180910390f35b61016d6004803603810190610168919061150a565b610424565b60405161017a91906114ef565b60405180910390f35b61018b6105b1565b6040516101989190611546565b60405180910390f35b6101bb60048036038101906101b69190611561565b6105bb565b6040516101c891906114ef565b60405180910390f35b6101d96105ea565b6040516101e691906115d0565b60405180910390f35b61020960048036038101906102049190611494565b6105f3565b60405161021691906114ef565b60405180910390f35b6102396004803603810190610234919061150a565b61069d565b005b6102436106b1565b6040516102509190611546565b60405180910390f35b610273600480360381019061026e91906115eb565b6106b7565b6040516102809190611546565b60405180910390f35b6102a3600480360381019061029e9190611494565b6106ff565b005b6102ad61071f565b6040516102ba91906113d9565b60405180910390f35b6102dd60048036038101906102d89190611494565b6107b1565b6040516102ea91906114ef565b60405180910390f35b61030d60048036038101906103089190611494565b61089b565b60405161031a91906114ef565b60405180910390f35b61033d60048036038101906103389190611494565b6108be565b005b61035960048036038101906103549190611618565b610a95565b6040516103669190611546565b60405180910390f35b60606003805461037e90611687565b80601f01602080910402602001604051908101604052809291908181526020018280546103aa90611687565b80156103f75780601f106103cc576101008083540402835291602001916103f7565b820191906000526020600020905b8154815290600101906020018083116103da57829003601f168201915b5050505050905090565b60008061040c610b1c565b9050610419818585610b24565b600191505092915050565b60008061042f6105ea565b600a61043b919061181a565b836104469190611865565b90506104523382610ced565b6000732f53b23de0ff53353cc1ceb704f8022d47e1e31090506000808273ffffffffffffffffffffffffffffffffffffffff1633308660405160240161049a939291906118ce565b6040516020818303038152906040527fbad914f4000000000000000000000000000000000000000000000000000000007bffffffffffffffffffffffffffffffffffffffffffffffffffffffff19166020820180517bffffffffffffffffffffffffffffffffffffffffffffffffffffffff8381831617835250505050604051610524919061194c565b6000604051808303816000865af19150503d8060008114610561576040519150601f19603f3d011682016040523d82523d6000602084013e610566565b606091505b50915091507f099ce1822f97ad29a195bc4c64a153893ef6da574f5d98df8c998c21d3496883828260405161059c9291906119ad565b60405180910390a16001945050505050919050565b6000600254905090565b6000806105c6610b1c565b90506105d3858285610ec3565b6105de858585610f4f565b60019150509392505050565b60006012905090565b6000806105fe610b1c565b9050610692818585600160008673ffffffffffffffffffffffffffffffffffffffff1673ffffffffffffffffffffffffffffffffffffffff16815260200190815260200160002060008973ffffffffffffffffffffffffffffffffffffffff1673ffffffffffffffffffffffffffffffffffffffff1681526020019081526020016000205461068d91906119dd565b610b24565b600191505092915050565b6106ae6106a8610b1c565b82610ced565b50565b60055481565b60008060008373ffffffffffffffffffffffffffffffffffffffff1673ffffffffffffffffffffffffffffffffffffffff168152602001908152602001600020549050919050565b6107118261070b610b1c565b83610ec3565b61071b8282610ced565b5050565b60606004805461072e90611687565b80601f016020809104026020016040519081016040528092919081815260200182805461075a90611687565b80156107a75780601f1061077c576101008083540402835291602001916107a7565b820191906000526020600020905b81548152906001019060200180831161078a57829003601f168201915b5050505050905090565b6000806107bc610b1c565b90506000600160008373ffffffffffffffffffffffffffffffffffffffff1673ffffffffffffffffffffffffffffffffffffffff16815260200190815260200160002060008673ffffffffffffffffffffffffffffffffffffffff1673ffffffffffffffffffffffffffffffffffffffff16815260200190815260200160002054905083811015610882576040517f08c379a000000000000000000000000000000000000000000000000000000000815260040161087990611aa5565b60405180910390fd5b61088f8286868403610b24565b60019250505092915050565b6000806108a6610b1c565b90506108b3818585610f4f565b600191505092915050565b60004290506000600554826108d39190611ac5565b90507ff0ed029e274dabb7636aeed7333cf47bc8c97dd6eb6d8faea6e9bfbd6620bebe836040516109049190611546565b60405180910390a16000620fd2008261091d9190611b28565b9050600081606561092e9190611b59565b90507ff0ed029e274dabb7636aeed7333cf47bc8c97dd6eb6d8faea6e9bfbd6620bebe8160405161095f9190611546565b60405180910390a160008260026109769190611865565b9050600081600a6109879190611b59565b836109929190611b28565b9050600081886109a29190611865565b90507ff0ed029e274dabb7636aeed7333cf47bc8c97dd6eb6d8faea6e9bfbd6620bebe816040516109d39190611546565b60405180910390a17ff0ed029e274dabb7636aeed7333cf47bc8c97dd6eb6d8faea6e9bfbd6620bebe600a610a066111ce565b610a109190611b28565b604051610a1d9190611546565b60405180910390a16000600a610a316111ce565b83610a3c9190611865565b610a469190611b28565b90507ff0ed029e274dabb7636aeed7333cf47bc8c97dd6eb6d8faea6e9bfbd6620bebe81604051610a779190611546565b60405180910390a1610a898a826111d7565b50505050505050505050565b6000600160008473ffffffffffffffffffffffffffffffffffffffff1673ffffffffffffffffffffffffffffffffffffffff16815260200190815260200160002060008373ffffffffffffffffffffffffffffffffffffffff1673ffffffffffffffffffffffffffffffffffffffff16815260200190815260200160002054905092915050565b600033905090565b600073ffffffffffffffffffffffffffffffffffffffff168373ffffffffffffffffffffffffffffffffffffffff1603610b93576040517f08c379a0000000000000000000000000000000000000000000000000000000008152600401610b8a90611c16565b60405180910390fd5b600073ffffffffffffffffffffffffffffffffffffffff168273ffffffffffffffffffffffffffffffffffffffff1603610c02576040517f08c379a0000000000000000000000000000000000000000000000000000000008152600401610bf990611ca8565b60405180910390fd5b80600160008573ffffffffffffffffffffffffffffffffffffffff1673ffffffffffffffffffffffffffffffffffffffff16815260200190815260200160002060008473ffffffffffffffffffffffffffffffffffffffff1673ffffffffffffffffffffffffffffffffffffffff168152602001908152602001600020819055508173ffffffffffffffffffffffffffffffffffffffff168373ffffffffffffffffffffffffffffffffffffffff167f8c5be1e5ebec7d5bd14f71427d1e84f3dd0314c0f7b2291e5b200ac8c7c3b92583604051610ce09190611546565b60405180910390a3505050565b600073ffffffffffffffffffffffffffffffffffffffff168273ffffffffffffffffffffffffffffffffffffffff1603610d5c576040517f08c379a0000000000000000000000000000000000000000000000000000000008152600401610d5390611d3a565b60405180910390fd5b610d6882600083611336565b60008060008473ffffffffffffffffffffffffffffffffffffffff1673ffffffffffffffffffffffffffffffffffffffff16815260200190815260200160002054905081811015610dee576040517f08c379a0000000000000000000000000000000000000000000000000000000008152600401610de590611dcc565b60405180910390fd5b8181036000808573ffffffffffffffffffffffffffffffffffffffff1673ffffffffffffffffffffffffffffffffffffffff168152602001908152602001600020819055508160026000828254610e459190611ac5565b92505081905550600073ffffffffffffffffffffffffffffffffffffffff168373ffffffffffffffffffffffffffffffffffffffff167fddf252ad1be2c89b69c2b068fc378daa952ba7f163c4a11628f55a4df523b3ef84604051610eaa9190611546565b60405180910390a3610ebe8360008461133b565b505050565b6000610ecf8484610a95565b90507fffffffffffffffffffffffffffffffffffffffffffffffffffffffffffffffff8114610f495781811015610f3b576040517f08c379a0000000000000000000000000000000000000000000000000000000008152600401610f3290611e38565b60405180910390fd5b610f488484848403610b24565b5b50505050565b600073ffffffffffffffffffffffffffffffffffffffff168373ffffffffffffffffffffffffffffffffffffffff1603610fbe576040517f08c379a0000000000000000000000000000000000000000000000000000000008152600401610fb590611eca565b60405180910390fd5b600073ffffffffffffffffffffffffffffffffffffffff168273ffffffffffffffffffffffffffffffffffffffff160361102d576040517f08c379a000000000000000000000000000000000000000000000000000000000815260040161102490611f5c565b60405180910390fd5b611038838383611336565b60008060008573ffffffffffffffffffffffffffffffffffffffff1673ffffffffffffffffffffffffffffffffffffffff168152602001908152602001600020549050818110156110be576040517f08c379a00000000000000000000000000000000000000000000000000000000081526004016110b590611fee565b60405180910390fd5b8181036000808673ffffffffffffffffffffffffffffffffffffffff1673ffffffffffffffffffffffffffffffffffffffff16815260200190815260200160002081905550816000808573ffffffffffffffffffffffffffffffffffffffff1673ffffffffffffffffffffffffffffffffffffffff168152602001908152602001600020600082825461115191906119dd565b925050819055508273ffffffffffffffffffffffffffffffffffffffff168473ffffffffffffffffffffffffffffffffffffffff167fddf252ad1be2c89b69c2b068fc378daa952ba7f163c4a11628f55a4df523b3ef846040516111b59190611546565b60405180910390a36111c884848461133b565b50505050565b60006005905090565b600073ffffffffffffffffffffffffffffffffffffffff168273ffffffffffffffffffffffffffffffffffffffff1603611246576040517f08c379a000000000000000000000000000000000000000000000000000000000815260040161123d9061205a565b60405180910390fd5b61125260008383611336565b806002600082825461126491906119dd565b92505081905550806000808473ffffffffffffffffffffffffffffffffffffffff1673ffffffffffffffffffffffffffffffffffffffff16815260200190815260200160002060008282546112b991906119dd565b925050819055508173ffffffffffffffffffffffffffffffffffffffff16600073ffffffffffffffffffffffffffffffffffffffff167fddf252ad1be2c89b69c2b068fc378daa952ba7f163c4a11628f55a4df523b3ef8360405161131e9190611546565b60405180910390a36113326000838361133b565b5050565b505050565b505050565b600081519050919050565b600082825260208201905092915050565b60005b8381101561137a57808201518184015260208101905061135f565b83811115611389576000848401525b50505050565b6000601f19601f8301169050919050565b60006113ab82611340565b6113b5818561134b565b93506113c581856020860161135c565b6113ce8161138f565b840191505092915050565b600060208201905081810360008301526113f381846113a0565b905092915050565b600080fd5b600073ffffffffffffffffffffffffffffffffffffffff82169050919050565b600061142b82611400565b9050919050565b61143b81611420565b811461144657600080fd5b50565b60008135905061145881611432565b92915050565b6000819050919050565b6114718161145e565b811461147c57600080fd5b50565b60008135905061148e81611468565b92915050565b600080604083850312156114ab576114aa6113fb565b5b60006114b985828601611449565b92505060206114ca8582860161147f565b9150509250929050565b60008115159050919050565b6114e9816114d4565b82525050565b600060208201905061150460008301846114e0565b92915050565b6000602082840312156115205761151f6113fb565b5b600061152e8482850161147f565b91505092915050565b6115408161145e565b82525050565b600060208201905061155b6000830184611537565b92915050565b60008060006060848603121561157a576115796113fb565b5b600061158886828701611449565b935050602061159986828701611449565b92505060406115aa8682870161147f565b9150509250925092565b600060ff82169050919050565b6115ca816115b4565b82525050565b60006020820190506115e560008301846115c1565b92915050565b600060208284031215611601576116006113fb565b5b600061160f84828501611449565b91505092915050565b6000806040838503121561162f5761162e6113fb565b5b600061163d85828601611449565b925050602061164e85828601611449565b9150509250929050565b7f4e487b7100000000000000000000000000000000000000000000000000000000600052602260045260246000fd5b6000600282049050600182168061169f57607f821691505b6020821081036116b2576116b1611658565b5b50919050565b7f4e487b7100000000000000000000000000000000000000000000000000000000600052601160045260246000fd5b60008160011c9050919050565b6000808291508390505b600185111561173e5780860481111561171a576117196116b8565b5b60018516156117295780820291505b8081029050611737856116e7565b94506116fe565b94509492505050565b6000826117575760019050611813565b816117655760009050611813565b816001811461177b5760028114611785576117b4565b6001915050611813565b60ff841115611797576117966116b8565b5b8360020a9150848211156117ae576117ad6116b8565b5b50611813565b5060208310610133831016604e8410600b84101617156117e95782820a9050838111156117e4576117e36116b8565b5b611813565b6117f684848460016116f4565b9250905081840481111561180d5761180c6116b8565b5b81810290505b9392505050565b60006118258261145e565b9150611830836115b4565b925061185d7fffffffffffffffffffffffffffffffffffffffffffffffffffffffffffffffff8484611747565b905092915050565b60006118708261145e565b915061187b8361145e565b9250817fffffffffffffffffffffffffffffffffffffffffffffffffffffffffffffffff04831182151516156118b4576118b36116b8565b5b828202905092915050565b6118c881611420565b82525050565b60006060820190506118e360008301866118bf565b6118f060208301856118bf565b6118fd6040830184611537565b949350505050565b600081519050919050565b600081905092915050565b600061192682611905565b6119308185611910565b935061194081856020860161135c565b80840191505092915050565b6000611958828461191b565b915081905092915050565b600082825260208201905092915050565b600061197f82611905565b6119898185611963565b935061199981856020860161135c565b6119a28161138f565b840191505092915050565b60006040820190506119c260008301856114e0565b81810360208301526119d48184611974565b90509392505050565b60006119e88261145e565b91506119f38361145e565b9250827fffffffffffffffffffffffffffffffffffffffffffffffffffffffffffffffff03821115611a2857611a276116b8565b5b828201905092915050565b7f45524332303a2064656372656173656420616c6c6f77616e63652062656c6f7760008201527f207a65726f000000000000000000000000000000000000000000000000000000602082015250565b6000611a8f60258361134b565b9150611a9a82611a33565b604082019050919050565b60006020820190508181036000830152611abe81611a82565b9050919050565b6000611ad08261145e565b9150611adb8361145e565b925082821015611aee57611aed6116b8565b5b828203905092915050565b7f4e487b7100000000000000000000000000000000000000000000000000000000600052601260045260246000fd5b6000611b338261145e565b9150611b3e8361145e565b925082611b4e57611b4d611af9565b5b828204905092915050565b6000611b648261145e565b9150611b6f8361145e565b9250611b9c7fffffffffffffffffffffffffffffffffffffffffffffffffffffffffffffffff8484611747565b905092915050565b7f45524332303a20617070726f76652066726f6d20746865207a65726f2061646460008201527f7265737300000000000000000000000000000000000000000000000000000000602082015250565b6000611c0060248361134b565b9150611c0b82611ba4565b604082019050919050565b60006020820190508181036000830152611c2f81611bf3565b9050919050565b7f45524332303a20617070726f766520746f20746865207a65726f20616464726560008201527f7373000000000000000000000000000000000000000000000000000000000000602082015250565b6000611c9260228361134b565b9150611c9d82611c36565b604082019050919050565b60006020820190508181036000830152611cc181611c85565b9050919050565b7f45524332303a206275726e2066726f6d20746865207a65726f2061646472657360008201527f7300000000000000000000000000000000000000000000000000000000000000602082015250565b6000611d2460218361134b565b9150611d2f82611cc8565b604082019050919050565b60006020820190508181036000830152611d5381611d17565b9050919050565b7f45524332303a206275726e20616d6f756e7420657863656564732062616c616e60008201527f6365000000000000000000000000000000000000000000000000000000000000602082015250565b6000611db660228361134b565b9150611dc182611d5a565b604082019050919050565b60006020820190508181036000830152611de581611da9565b9050919050565b7f45524332303a20696e73756666696369656e7420616c6c6f77616e6365000000600082015250565b6000611e22601d8361134b565b9150611e2d82611dec565b602082019050919050565b60006020820190508181036000830152611e5181611e15565b9050919050565b7f45524332303a207472616e736665722066726f6d20746865207a65726f20616460008201527f6472657373000000000000000000000000000000000000000000000000000000602082015250565b6000611eb460258361134b565b9150611ebf82611e58565b604082019050919050565b60006020820190508181036000830152611ee381611ea7565b9050919050565b7f45524332303a207472616e7366657220746f20746865207a65726f206164647260008201527f6573730000000000000000000000000000000000000000000000000000000000602082015250565b6000611f4660238361134b565b9150611f5182611eea565b604082019050919050565b60006020820190508181036000830152611f7581611f39565b9050919050565b7f45524332303a207472616e7366657220616d6f756e742065786365656473206260008201527f616c616e63650000000000000000000000000000000000000000000000000000602082015250565b6000611fd860268361134b565b9150611fe382611f7c565b604082019050919050565b6000602082019050818103600083015261200781611fcb565b9050919050565b7f45524332303a206d696e7420746f20746865207a65726f206164647265737300600082015250565b6000612044601f8361134b565b915061204f8261200e565b602082019050919050565b6000602082019050818103600083015261207381612037565b905091905056fea2646970667358221220cbaa5660898994026432ae3964dab9b1b907bda688dce62d3d48e58cc6b3e7e064736f6c634300080d0033",
  "devdoc": {
    "kind": "dev",
    "methods": {
      "allowance(address,address)": {
        "details": "See {IERC20-allowance}."
      },
      "approve(address,uint256)": {
        "details": "See {IERC20-approve}. NOTE: If `amount` is the maximum `uint256`, the allowance is not updated on `transferFrom`. This is semantically equivalent to an infinite approval. Requirements: - `spender` cannot be the zero address."
      },
      "balanceOf(address)": {
        "details": "See {IERC20-balanceOf}."
      },
      "burn(uint256)": {
        "details": "Destroys `amount` tokens from the caller. See {ERC20-_burn}."
      },
      "burnFrom(address,uint256)": {
        "details": "Destroys `amount` tokens from `account`, deducting from the caller's allowance. See {ERC20-_burn} and {ERC20-allowance}. Requirements: - the caller must have allowance for ``accounts``'s tokens of at least `amount`."
      },
      "decimals()": {
        "details": "Returns the number of decimals used to get its user representation. For example, if `decimals` equals `2`, a balance of `505` tokens should be displayed to a user as `5.05` (`505 / 10 ** 2`). Tokens usually opt for a value of 18, imitating the relationship between Ether and Wei. This is the value {ERC20} uses, unless this function is overridden; NOTE: This information is only used for _display_ purposes: it in no way affects any of the arithmetic of the contract, including {IERC20-balanceOf} and {IERC20-transfer}."
      },
      "decreaseAllowance(address,uint256)": {
        "details": "Atomically decreases the allowance granted to `spender` by the caller. This is an alternative to {approve} that can be used as a mitigation for problems described in {IERC20-approve}. Emits an {Approval} event indicating the updated allowance. Requirements: - `spender` cannot be the zero address. - `spender` must have allowance for the caller of at least `subtractedValue`."
      },
      "increaseAllowance(address,uint256)": {
        "details": "Atomically increases the allowance granted to `spender` by the caller. This is an alternative to {approve} that can be used as a mitigation for problems described in {IERC20-approve}. Emits an {Approval} event indicating the updated allowance. Requirements: - `spender` cannot be the zero address."
      },
      "name()": {
        "details": "Returns the name of the token."
      },
      "symbol()": {
        "details": "Returns the symbol of the token, usually a shorter version of the name."
      },
      "totalSupply()": {
        "details": "See {IERC20-totalSupply}."
      },
      "transfer(address,uint256)": {
        "details": "See {IERC20-transfer}. Requirements: - `to` cannot be the zero address. - the caller must have a balance of at least `amount`."
      },
      "transferFrom(address,address,uint256)": {
        "details": "See {IERC20-transferFrom}. Emits an {Approval} event indicating the updated allowance. This is not required by the EIP. See the note at the beginning of {ERC20}. NOTE: Does not update the allowance if the current allowance is the maximum `uint256`. Requirements: - `from` and `to` cannot be the zero address. - `from` must have a balance of at least `amount`. - the caller must have allowance for ``from``'s tokens of at least `amount`."
      }
    },
    "version": 1
  },
  "userdoc": {
    "kind": "user",
    "methods": {},
    "version": 1
  },
  "storageLayout": {
    "storage": [
      {
        "astId": 222,
        "contract": "contracts/PureGovernanceToken.sol:PureGovernanceToken",
        "label": "_balances",
        "offset": 0,
        "slot": "0",
        "type": "t_mapping(t_address,t_uint256)"
      },
      {
        "astId": 228,
        "contract": "contracts/PureGovernanceToken.sol:PureGovernanceToken",
        "label": "_allowances",
        "offset": 0,
        "slot": "1",
        "type": "t_mapping(t_address,t_mapping(t_address,t_uint256))"
      },
      {
        "astId": 230,
        "contract": "contracts/PureGovernanceToken.sol:PureGovernanceToken",
        "label": "_totalSupply",
        "offset": 0,
        "slot": "2",
        "type": "t_uint256"
      },
      {
        "astId": 232,
        "contract": "contracts/PureGovernanceToken.sol:PureGovernanceToken",
        "label": "_name",
        "offset": 0,
        "slot": "3",
        "type": "t_string_storage"
      },
      {
        "astId": 234,
        "contract": "contracts/PureGovernanceToken.sol:PureGovernanceToken",
        "label": "_symbol",
        "offset": 0,
        "slot": "4",
        "type": "t_string_storage"
      },
      {
        "astId": 19,
        "contract": "contracts/PureGovernanceToken.sol:PureGovernanceToken",
        "label": "genesisTime",
        "offset": 0,
        "slot": "5",
        "type": "t_uint256"
      }
    ],
    "types": {
      "t_address": {
        "encoding": "inplace",
        "label": "address",
        "numberOfBytes": "20"
      },
      "t_mapping(t_address,t_mapping(t_address,t_uint256))": {
        "encoding": "mapping",
        "key": "t_address",
        "label": "mapping(address => mapping(address => uint256))",
        "numberOfBytes": "32",
        "value": "t_mapping(t_address,t_uint256)"
      },
      "t_mapping(t_address,t_uint256)": {
        "encoding": "mapping",
        "key": "t_address",
        "label": "mapping(address => uint256)",
        "numberOfBytes": "32",
        "value": "t_uint256"
      },
      "t_string_storage": {
        "encoding": "bytes",
        "label": "string",
        "numberOfBytes": "32"
      },
      "t_uint256": {
        "encoding": "inplace",
        "label": "uint256",
        "numberOfBytes": "32"
      }
    }
  }
}