{
  "address": "0x95e73d7a2C32bB19950Ab9b7F031A6F09714E797",
  "abi": [
    {
      "anonymous": false,
      "inputs": [
        {
          "indexed": false,
          "internalType": "uint256",
          "name": "number",
          "type": "uint256"
        },
        {
          "indexed": false,
          "internalType": "address",
          "name": "sender",
          "type": "address"
        }
      ],
      "name": "newNumber",
      "type": "event"
    },
    {
      "inputs": [],
      "name": "retrieve",
      "outputs": [
        {
          "internalType": "uint256",
          "name": "",
          "type": "uint256"
        }
      ],
      "stateMutability": "view",
      "type": "function"
    },
    {
      "inputs": [
        {
          "internalType": "uint256",
          "name": "num",
          "type": "uint256"
        }
      ],
      "name": "store",
      "outputs": [],
      "stateMutability": "nonpayable",
      "type": "function"
    },
    {
      "inputs": [
        {
          "internalType": "uint256",
          "name": "num",
          "type": "uint256"
        }
      ],
      "name": "storeAgain",
      "outputs": [],
      "stateMutability": "nonpayable",
      "type": "function"
    }
  ],
  "transactionHash": "0xa2e6b60f98706246b1409397f439f01439069cec239cf4e3c2167b82216440e4",
  "args": [],
  "numDeployments": 6,
  "solcInputHash": "a276c156249f66aaa37ea20bc09ef73d",
  "bytecode": "0x6080604052600160005534801561001557600080fd5b5061025d806100256000396000f3fe608060405234801561001057600080fd5b50600436106100415760003560e01c80632e64cec1146100465780636057361d14610064578063f5f7339114610080575b600080fd5b61004e61009c565b60405161005b9190610144565b60405180910390f35b61007e60048036038101906100799190610190565b6100a5565b005b61009a60048036038101906100959190610190565b6100e8565b005b60008054905090565b806000819055507fec82311f97b04658298386090ef20f797cdda0d5c70aecd631063241c68facf881336040516100dd9291906101fe565b60405180910390a150565b806000819055507fec82311f97b04658298386090ef20f797cdda0d5c70aecd631063241c68facf881336040516101209291906101fe565b60405180910390a150565b6000819050919050565b61013e8161012b565b82525050565b60006020820190506101596000830184610135565b92915050565b600080fd5b61016d8161012b565b811461017857600080fd5b50565b60008135905061018a81610164565b92915050565b6000602082840312156101a6576101a561015f565b5b60006101b48482850161017b565b91505092915050565b600073ffffffffffffffffffffffffffffffffffffffff82169050919050565b60006101e8826101bd565b9050919050565b6101f8816101dd565b82525050565b60006040820190506102136000830185610135565b61022060208301846101ef565b939250505056fea264697066735822122073bf593e5925127e8458598a4c378599620ee6439339667785dcb86aeab2eb3d64736f6c634300080d0033",
  "devdoc": {
    "details": "Store & retrieve value in a variable",
    "kind": "dev",
    "methods": {
      "retrieve()": {
        "details": "Return value ",
        "returns": {
          "_0": "value of 'number'"
        }
      },
      "store(uint256)": {
        "details": "Store value in variable",
        "params": {
          "num": "value to store"
        }
      },
      "storeAgain(uint256)": {
        "details": "Store value in variable",
        "params": {
          "num": "value to store"
        }
      }
    },
    "title": "Storage",
    "version": 1
  },
  "userdoc": {
    "kind": "user",
    "methods": {},
    "version": 1
  },
  "storageLayout": {
    "storage": [
      {
        "astId": 260,
        "contract": "contracts/Storage.sol:Storage",
        "label": "number",
        "offset": 0,
        "slot": "0",
        "type": "t_uint256"
      }
    ],
    "types": {
      "t_uint256": {
        "encoding": "inplace",
        "label": "uint256",
        "numberOfBytes": "32"
      }
    }
  }
}