{
  "address": "0x3D5f9184A6C75F4F777850C4178070dbDA4961eB",
  "abi": [
    {
      "anonymous": false,
      "inputs": [
        {
          "indexed": false,
          "internalType": "uint256",
          "name": "number",
          "type": "uint256"
        },
        {
          "indexed": false,
          "internalType": "address",
          "name": "sender",
          "type": "address"
        }
      ],
      "name": "newNumber",
      "type": "event"
    },
    {
      "inputs": [],
      "name": "retrieve",
      "outputs": [
        {
          "internalType": "uint256",
          "name": "",
          "type": "uint256"
        }
      ],
      "stateMutability": "view",
      "type": "function"
    },
    {
      "inputs": [
        {
          "internalType": "uint256",
          "name": "num",
          "type": "uint256"
        }
      ],
      "name": "store",
      "outputs": [],
      "stateMutability": "nonpayable",
      "type": "function"
    },
    {
      "inputs": [
        {
          "internalType": "uint256",
          "name": "num",
          "type": "uint256"
        }
      ],
      "name": "storeAgain",
      "outputs": [],
      "stateMutability": "nonpayable",
      "type": "function"
    }
  ],
  "transactionHash": "0x87521a43506587ff4638ed9ceef18a3e1b4dc37715937cb0a26b0a500f53ff9e",
  "args": [],
  "numDeployments": 5,
  "solcInputHash": "511ddb6083ef34bcec4fc6117127e1c7",
  "bytecode": "0x6080604052600160005534801561001557600080fd5b50610254806100256000396000f3fe608060405234801561001057600080fd5b50600436106100415760003560e01c80632e64cec1146100465780636057361d14610064578063f5f7339114610080575b600080fd5b61004e61009c565b60405161005b9190610187565b60405180910390f35b61007e60048036038101906100799190610140565b6100a5565b005b61009a60048036038101906100959190610140565b6100e8565b005b60008054905090565b806000819055507fec82311f97b04658298386090ef20f797cdda0d5c70aecd631063241c68facf881336040516100dd9291906101a2565b60405180910390a150565b806000819055507fec82311f97b04658298386090ef20f797cdda0d5c70aecd631063241c68facf881336040516101209291906101a2565b60405180910390a150565b60008135905061013a81610207565b92915050565b60006020828403121561015257600080fd5b60006101608482850161012b565b91505092915050565b610172816101cb565b82525050565b610181816101fd565b82525050565b600060208201905061019c6000830184610178565b92915050565b60006040820190506101b76000830185610178565b6101c46020830184610169565b9392505050565b60006101d6826101dd565b9050919050565b600073ffffffffffffffffffffffffffffffffffffffff82169050919050565b6000819050919050565b610210816101fd565b811461021b57600080fd5b5056fea2646970667358221220d6cf365168b3841980077d54311c753658a9af45617c200cc3a5954e6600f15e64736f6c63430008040033",
  "devdoc": {
    "details": "Store & retrieve value in a variable",
    "kind": "dev",
    "methods": {
      "retrieve()": {
        "details": "Return value ",
        "returns": {
          "_0": "value of 'number'"
        }
      },
      "store(uint256)": {
        "details": "Store value in variable",
        "params": {
          "num": "value to store"
        }
      },
      "storeAgain(uint256)": {
        "details": "Store value in variable",
        "params": {
          "num": "value to store"
        }
      }
    },
    "title": "Storage",
    "version": 1
  },
  "userdoc": {
    "kind": "user",
    "methods": {},
    "version": 1
  },
  "storageLayout": {
    "storage": [
      {
        "astId": 11,
        "contract": "contracts/Storage.sol:Storage",
        "label": "number",
        "offset": 0,
        "slot": "0",
        "type": "t_uint256"
      }
    ],
    "types": {
      "t_uint256": {
        "encoding": "inplace",
        "label": "uint256",
        "numberOfBytes": "32"
      }
    }
  }
}